:020000021000EC
:10009400130101FF9305000023248100232611008E
:1000A40013040500EF30003883A741D663840700AA
:1000B400E780070013050400EF40405F930700004A
:1000C4006388070037450100130505616F30C04898
:1000D4006780000097610000938181E9138581D4D2
:1000E400138601093306A64093050000EF30401C37
:1000F4001735000013058546630805001745000001
:1001040013050551EF304045EF30C01003250100C1
:100114009305410013060000EF00101B6FF05FF71A
:10012400130101FF2324810083C701D82326110072
:100134006392070293070000638A070037550100A2
:100144001305050097000000E70000009307100066
:100154002380F1D88320C10003248100130101010D
:100164006780000093070000638C07003755010087
:10017400938541D8130505001703000067000000AC
:1001840067800000130101FF23261100232481004E
:1001940013040101138581D4EF00C0451307050042
:1001A4009387050093070700138507008320C10088
:1001B400032481001301010167800000130101FF82
:1001C400232611002324810013040101138581D403
:1001D400EF004042130705009387050093070700CB
:1001E4009305803E13850700EF20007293070500F6
:1001F400138507008320C10003248100130101013A
:1002040067800000130101FE232E1100232C8100BE
:10021400130401022326A4FE8326C4FE13870600CA
:10022400930700009305070013860700138581D404
:10023400EF00C041130000008320C10103248101A9
:100244001301010267800000130101FE232E110037
:10025400232C8100130401022326A4FE0327C4FED9
:100264009307070093975700B387E74093972700B6
:10027400B387E700939737001386070093060000BF
:100284009305060013860600138581D4EF00003C15
:10029400130000008320C101032481011301010222
:1002A40067800000130101FE232E1100232C81001E
:1002B400130401022326A4FE2324B4FE2322C4FE35
:1002C400B757010093850783138501D5EF00D02E1E
:1002D4008325C4FE138501D5EF00102E832584FEEB
:1002E400138501D5EF005051B757010093858783DB
:1002F400138501D5EF00502C13060001832584FEDD
:10030400138501D5EF005053B75701009385C78378
:10031400138501D5EF00502A832544FE138501D5AA
:10032400EF00904DB757010093858783138501D55E
:10033400EF00902813060001832544FE138501D5A0
:10034400EF00904FB757010093854784138501D57B
:10035400EF009026130000008320C10103248101D3
:100364001301010267800000130101FF23268100AD
:1003740013040101130000000324C100130101014F
:1003840067800000130101FF23261100232481004C
:1003940013040101B70500C0138581D4EF004007A1
:1003A400138681D3938581D4B70701001385C7478A
:1003B400EF200065B70700C093850708138501D5B2
:1003C400EF00807D138681D3938501D5B717010093
:1003D400138547BEEF20C062130000008320C100D4
:1003E400032481001301010167800000130101FF50
:1003F400232611002324810013040101EFF09FF848
:100404008320C100032481001301010167800000DF
:10041400130101FE232E1100232C81001304010279
:100424002326A4FE2324B4FE8327C4FE032784FECC
:1004340023A0E7008327C4FE1307100023A2E700CC
:100444000325C4FEEF00400F8327C4FE83A70700E3
:1004540093878700138707008327C4FE83A7470079
:100464002320F700130000008320C101032481012D
:100474001301010267800000130101FE232E810095
:10048400130401022326A4FE130000000324C10167
:100494001301010267800000130101FE232E810075
:1004A400130401022326A4FE8327C4FE83A7470066
:1004B40013F7E7FF8327C4FE23A2E7008327C4FEC4
:1004C40083A7070093878700138707008327C4FE49
:1004D40083A747002320F700130000000324C10171
:1004E4001301010267800000130101FE232E810025
:1004F400130401022326A4FE8327C4FE83A7470016
:1005040013E717008327C4FE23A2E7008327C4FE52
:1005140083A7070093878700138707008327C4FEF8
:1005240083A747002320F700130000000324C10120
:100534001301010267800000130101FD23268102DB
:1005440013040103232EA4FC8327C4FD83A74700BF
:1005540093E727002326F4FE8327C4FD83A707001F
:1005640093878700138707008327C4FE2320F7009F
:10057400130000000324C10213010103678000007B
:10058400130101FD2326810213040103232EA4FC7D
:100594008325C4FD83A5050083A505002324B4FE9B
:1005A400232604FE8325C4FD83A505009385450009
:1005B40083A505002320B4FE232204FE832504FE24
:1005C4009397050013070000832584FE33E6E500B6
:1005D4008325C4FEB3E6F5001307060093870600DF
:1005E40013050700938507000324C10213010103C7
:1005F40067800000130101FE232E1100232C8100CB
:10060400130401022326A4FE0325C4FEEFF05FF7C2
:1006140013070500938705001306400693060000A0
:100624001305070093850700EF00504913070500E1
:100634009387050013050700938507008320C101F4
:10064400032481011301010267800000130101FDED
:10065400232611022324810213040103232EA4FC64
:100664002328B4FC232AC4FC0325C4FDEFF09FF81F
:100674002324A4FE2326B4FE0325C4FDEFF09FF734
:100684002320A4FE2322B4FE032704FE832744FE72
:10069400032584FE8325C4FE3306A7401308060001
:1006A40033380701B386B740B38706419386070002
:1006B4001307060093870600832644FD138607006C
:1006C400E36CD6FA832644FD138607006398C600BC
:1006D400832604FD93070700E3E0D7FA1300000024
:1006E4008320C102032481021301010367800000F7
:1006F400130101FE232E8100130401022326A4FE0C
:100704002324B4FE8327C4FE032784FE23A0E7002A
:100714008327C4FE23A20700130000000324C101A1
:100724001301010267800000130101FE232E8100E2
:10073400130401022326A4FE130000000324C101B4
:100744001301010267800000130101FE232E8100C2
:10075400130401022326A4FE2324B4FE8327C4FE2B
:10076400032784FE23A2E7008327C4FE83A7070090
:10077400138707008327C4FE83A747002320F700BD
:10078400130000000324C10113010102678000006B
:10079400130101FE232E8100130401022326A4FE6B
:1007A4002324B4FE2322C4FE832784FE6384070229
:1007B4008327C4FE03A74700832744FE9306100043
:1007C400B397F6003367F7008327C4FE23A2E7003C
:1007D4006F0080028327C4FE03A74700832744FEDB
:1007E40093061000B397F60093C7F7FF3377F7002B
:1007F4008327C4FE23A2E7008327C4FE83A7070040
:10080400138707008327C4FE83A747002320F7002C
:10081400130000000324C1011301010267800000DA
:10082400130101FE232E8100130401022326A4FEDA
:100834002324B4FE8327C4FE032784FE23A0E700F9
:10084400130000000324C1011301010267800000AA
:10085400130101FE232E8100130401022326A4FEAA
:10086400130000000324C10113010102678000008A
:10087400130101FE232E8100130401022326A4FE8A
:100884008327C4FE83A7070083A7070013850700F7
:100894000324C1011301010267800000130101FD5B
:1008A4002326810213040103232EA4FC232CB4FC6D
:1008B4008327C4FD83A7070083A707002326F4FE2C
:1008C400832784FD0327C4FEB357F70093F717006B
:1008D400138507000324C10213010103678000008C
:1008E400130101FD232611022324810213040103B1
:1008F400232EA4FC232604FE6F000004B707010086
:100904009385F7FF0325C4FDEFF01FE41305401F93
:10091400EFF09F93930500000325C4FDEFF0DFE2A1
:100924001305401FEFF05F92EFF01FA48327C4FE6E
:10093400938717002326F4FE0327C4FE9307400081
:10094400E3DEE7FA13000000130000008320C10275
:10095400032481021301010367800000130101FDD8
:10096400232611022324810213040103232EA4FC51
:10097400232CB4FC232604FE6F0000040326C4FECB
:10098400930510000325C4FDEFF09FE01305800CD0
:10099400EFF09F8B0326C4FE930500000325C4FDDE
:1009A400EFF01FDF1305800CEFF01F8A8327C4FECE
:1009B400938717002326F4FE0327C4FE832784FDB0
:1009C400E34EF7FA13000000130000008320C10275
:1009D400032481021301010367800000130101FD58
:1009E400232611022324810213040103232EA4FCD1
:1009F400232CB4FC032584FDEFF09FE79307050047
:100A04002324F4FE232604FE6F00C003832784FE00
:100A1400938507000325C4FDEFF01FD313052003BE
:100A2400EFF09F82930500000325C4FDEFF0DFD1B2
:100A340013052003EFF05F818327C4FE938717001B
:100A44002326F4FE0327C4FE9307D001E3D0E7FC7A
:100A540013000000130000008320C102032481025C
:100A64001301010367800000130101FF2326110015
:100A74002324810013040101B75701009385C7841F
:100A8400138501D5EF00403383A7C1D993850700AF
:100A9400138501D5EF004056B7570100938587852C
:100AA400138501D5EF00403183A7C1D913871700FF
:100AB40023AEE1D8130000008320C1000324810089
:100AC4001301010167800000130101FF23261100B7
:100AD4002324810013040101138581D5EFF05FE025
:100AE40093050001138581D5EFF05FE7938501D667
:100AF400138581D5EFF09FEEEFF01FF7EFF0DF865F
:100B0400130000006FF05FFD130101FF23261100A5
:100B14002324810013040101B70700C09385071043
:100B2400138581D5EFF0DFBC138681D3938581D5FE
:100B3400B70701001385C772EF10906CB70700C0A8
:100B440093850718138501D6EFF09FCD138681D3C3
:100B5400938501D6B717010013854785EF10506AB6
:100B6400130000008320C10003248100130101014C
:100B740067800000130101FF232611002324810054
:100B840013040101EFF05FF88320C1000324810006
:100B94001301010167800000130101FE232E1100DF
:100BA400232C8100130401022326A4FE2324B4FE73
:100BB4008327C4FE032784FE23A0E700B727000091
:100BC400938507580325C4FEEF008003130000003B
:100BD4008320C10103248101130101026780000005
:100BE400130101FE232E8100130401022326A4FE17
:100BF400130000000324C1011301010267800000F7
:100C0400130101FD2326110223248102130401038D
:100C1400232EA4FC232CB4FCB7675F00832584FD3A
:100C2400138507E1EF10D04D930705009387F7FF75
:100C34002326F4FE8327C4FD83A707009387470078
:100C4400138707008327C4FE2320F7001300000046
:100C54008320C10203248102130101036780000081
:100C6400130101FD2326810213040103232EA4FC96
:100C74008327C4FD83A7070083A707002326F4FE68
:100C84008327C4FE93D7874093F717002324F4FEE9
:100C9400832784FE138507000324C1021301010383
:100CA40067800000130101FD232681021304010360
:100CB400232EA4FC8327C4FD83A7070083A7070072
:100CC4002326F4FE8327C4FE93F707202324F4FE8F
:100CD400832784FE138507000324C1021301010343
:100CE40067800000130101FE232E1100232C8100D4
:100CF400130401022326A4FE93870500A305F4FE32
:100D0400130000000325C4FEEFF0DFF9930705008C
:100D1400B337F00093F7F70FE39607FE8327C4FE7B
:100D240083A7070093878700138707008347B4FED0
:100D34002320F700130000008320C1010324810154
:100D44001301010267800000130101FD2326110233
:100D54002324810213040103232EA4FC0325C4FDD0
:100D6400EFF01FF093070500B337F00093F7F70F88
:100D7400638607009307F0FF6F00C0028327C4FD5A
:100D840083A7070083A7070093F7F70F2326F4FE32
:100D94008327C4FD83A707009387C70023A0070008
:100DA4008327C4FE138507008320C1020324810224
:100DB4001301010367800000130101FE232E1100BB
:100DC400232C8100130401022326A4FE2324B4FE51
:100DD400832584FE0325C4FEEF0040481300000071
:100DE4008320C101032481011301010267800000F3
:100DF400130101FE232E1100232C81001304010290
:100E04002326A4FE93870500A305F4FE8347B4FEBE
:100E1400938507000325C4FEEFF0DFEC1300000008
:100E24008320C101032481011301010267800000B2
:100E3400130101FA232E1104232C81041304010647
:100E44002326A4FA2324B4FA2322C4FA2320D4FAAE
:100E5400032744FA930720006302F702032744FAA6
:100E640093078000630CF700032744FA93070001FB
:100E74006306F7009307A0002322F4FA032704FA79
:100E84009307000263D6E700930700022320F4FAD5
:100E9400032744FA9307A0006312F702832784FA16
:100EA40063DE0700832784FAB307F0402320F4FEAF
:100EB4009307D0022305F4FE6F004001832784FAD0
:100EC4002320F4FE930700022305F4FE930784FB1A
:100ED400938717022326F4FE8327C4FE238007008A
:100EE400232204FE8327C4FE9387F7FF2326F4FE00
:100EF400032744FA832704FE93050700138507009C
:100F0400EF10102593070500232EF4FC832744FAE1
:100F140093850700032504FEEF10101F93070500B7
:100F24002320F4FE0327C4FD9307900063CCE7005D
:100F34008327C4FD93F7F70F93870703A305F4FEF4
:100F44006F0040018327C4FD93F7F70F938777055C
:100F5400A305F4FE8327C4FE0347B4FE2380E70001
:100F6400832744FE938717002322F4FE832704FE7D
:100F7400E39A07F60347A4FE9307D0026318F70425
:100F84008327C4FE9387F7FF2326F4FE8327C4FE3A
:100F94000347A4FE2380E700832744FE93871700BA
:100FA4002322F4FE6F0080028327C4FE9387F7FF99
:100FB4002326F4FE8327C4FE130700022380E700E0
:100FC400832744FE938717002322F4FE032744FE5D
:100FD400832704FAE34AF7FC8325C4FE0325C4FAF5
:100FE400EF00C027130000008320C10503248105FE
:100FF4001301010667800000130101FE232E110076
:10100400232C8100130401022326A4FE2324B4FE0E
:10101400930600001306A000832584FE0325C4FE66
:10102400EFF01FE1130000008320C10103248101BC
:101034001301010267800000130101FE232E110039
:10104400232C8100130401022326A4FE2324B4FECE
:101054002322C4FE93060000032644FE832584FE57
:101064000325C4FEEFF0DFDC130000008320C10180
:10107400032481011301010267800000130101FCB4
:10108400232E1102232C8102232A21032328310336
:10109400130401042326A4FC2320B4FC2322C4FC4F
:1010A4002324D4FC032704FC832744FC2324E4FEE8
:1010B4002326F4FE1306000093060000032504FC17
:1010C400832544FCEF00C07B9307050063D6070229
:1010D400032904FC032744FCB7070080B349F70045
:1010E400232424FF232634FFB75701009385078662
:1010F4000325C4FCEF008016032584FE8325C4FE6B
:10110400EF10406B93070500232CF4FC832584FD2A
:101114000325C4FCEFF05FEEB757010093854786C3
:101124000325C4FCEF008013032584FDEF108070B9
:10113400130705009387050013060700938607002D
:10114400032584FE8325C4FEEF00506C13070500BD
:10115400938705002320E4FE2322F4FE232E04FCBF
:101164006F00C008B757010003A6878683A6C78609
:10117400032504FE832544FEEF00407E130705008B
:10118400938705002320E4FE2322F4FE032504FEB6
:10119400832544FEEF10006293070500232AF4FC24
:1011A400832544FD0325C4FCEFF01FE5032544FD1E
:1011B400EF10406813070500938705001306070026
:1011C40093860700032504FE832544FEEF00106484
:1011D40013070500938705002320E4FE2322F4FE71
:1011E4008327C4FD93871700232EF4FC0327C4FD33
:1011F400832784FCE348F7F6130000001300000083
:101204008320C103032481030329410383290103A8
:101214001301010467800000130101FE232E110055
:10122400232C8100130401022326A4FE2320B4FEF0
:101234002322C4FE93063000832504FE032644FEC5
:101244000325C4FEEFF09FE3130000008320C101D7
:10125400032481011301010267800000130101FED0
:10126400232E1100232C8100130401022326A4FE43
:101274002324B4FE6F004002832784FE83C7070043
:10128400938507000325C4FEEFF0DFA5832784FEC2
:10129400938717002324F4FE832784FE83C7070063
:1012A400E39C07FC13000000130000008320C1012D
:1012B400032481011301010267800000130101FD71
:1012C400232C41012326110223248102232291028B
:1012D40023202103232E3101232A510123286101D4
:1012E400232671012324810123229101130A05007D
:1012F40063940638B7570100930906009304050068
:101304009387078763F8C51237070100138905001F
:101314006378E610133706101337170013173700D6
:10132400B356E600B387D70083C7070093060002CD
:10133400B387E7003387F640638CF6003399E50002
:10134400B357FA00B319E60033E92701B314EA00EE
:1013540093DA090193850A0013050900139B090117
:10136400EF10805A135B0B0193050500130A050067
:1013740013050B00EF1080561304050093850A0033
:1013840013050900EF10C05C1315050113D7040100
:101394003367A70013090A00637E87003387E900D7
:1013A4001309FAFF63683701637687001309EAFFBC
:1013B400330737013304874093850A00130504007B
:1013C400EF10805493050500130A050013050B0064
:1013D400EF10C050130B050093850A001305040099
:1013E400EF100057939404011315050193D40401DD
:1013F400B3E4A40013070A0063FC6401B3849900F6
:101404001307FAFF63E6340163F464011307EAFF88
:1014140093170901B3E7E700130900006F000012F6
:10142400B706000113078001E37CD6EE1307000121
:101434006FF01FEF13070000630C0600370701006D
:10144400637CE6121337061013371700131737009F
:10145400B356E600B387D70083C70700930600029C
:10146400B387E7003387F6406392F612338AC540A8
:101474001309100013DB090193050B0013050A007F
:10148400939B0901EF10404893DB0B019305050082
:10149400130C050013850B00EF104044930A05005C
:1014A40093050B0013050A00EF10804A131505017C
:1014B40013D704013367A700130A0C00637E570196
:1014C4003387E900130AFCFF636837016376570129
:1014D400130AECFF330737013304574193050B001C
:1014E40013050400EF10404293050500930A05001C
:1014F40013850B00EF10803E930B050093050B0042
:1015040013050400EF10C04493940401131505015E
:1015140093D40401B3E4A40013870A0063FC7401A8
:10152400B38499001387FAFF63E6340163F474010A
:101534001387EAFF93170A01B3E7E7008320C10288
:1015440003248102832441028329C101032A8101E6
:10155400832A4101032B0101832BC100032C810049
:10156400832C410093050900138507000329010218
:101574001301010367800000B7060001130780010F
:10158400E378D6EC130700016FF09FECB319E60083
:1015940033D9F50093DB0901B395E500B357FA009D
:1015A400B3EAB700B314EA0093850B0013050900EE
:1015B400139A0901EF104035135A0A0193050500E7
:1015C400130B050013050A00EF1040311304050046
:1015D40093850B0013050900EF10803713150501DF
:1015E40013D70A013367A70013090B00637E870032
:1015F4003387E9001309FBFF6368370163768700CB
:101604001309EBFF330737013304874093850B003D
:1016140013050400EF10402F93050500130B05007C
:1016240013050A00EF10802B130A050093850B00A5
:1016340013050400EF10C03193970A011315050137
:1016440093D70701B3E7A70013070B0063FE470115
:10165400B387F9001307FBFF63E8370163F647011B
:101664001307EBFFB387370113190901338A474185
:101674003369E9006FF01FE063EED51EB707010080
:1016840063F4F60413B70610133717001317370063
:10169400B757010033D5E60093870787B387A700C0
:1016A40003C80700930700023308E80033890741A1
:1016B4006396070393071000E3E2B6E8B337CA0062
:1016C40093B717006FF09FE7B70700011307800176
:1016D400E3F0F6FC130700016FF09FFBB3962601BD
:1016E400335B0601336BDB00B3D40501135C0B01E0
:1016F40033580A01B3952501B369B8001385040072
:1017040093050C00931B0B013314260193DB0B018F
:10171400EF10801F93050500930C050013850B0043
:10172400EF10C01B930A050093050C0013850400F9
:10173400EF1000221315050193D60901B3E6A600A4
:1017440093840C0063FE5601B306DB009384FCFF14
:1017540063E8660163F656019384ECFFB386660181
:10176400B38A564193050C0013850A00EF10C01983
:1017740093050500930C050013850B00EF1000166C
:10178400930B050093050C0013850A00EF10401C11
:101794001397090113150501135707013367A700B0
:1017A40093860C00637E77013307EB009386FCFF7E
:1017B40063686701637677019386ECFF33076701FB
:1017C40093970401370E0100B3E7D7001303FEFF1C
:1017D400B3F86700337364003307774193DE07017E
:1017E400135404011385080093050300EF10000F40
:1017F400130805009305040013850800EF10000E7C
:10180400930805009305030013850E00EF10000DE7
:10181400130305009305040013850E00EF10000C5C
:1018240093560801B3886800B386160113060500B1
:1018340063F466003306C50193D506013386C500FB
:101844006366C702E31AC7BC370601001306F6FF36
:10185400B3F6C600939606013378C80033172A01FD
:10186400B386060113090000E37AD7CC9387F7FF08
:101874006FF09FBA13090000930700006FF01FCCAC
:1018840093D7460193D84501370710001307F7FF94
:1018940013080500130E050093F8F87F13F5F77F7E
:1018A4009307F07F3373B700930E06003377D700A6
:1018B40093D5F50193D6F6016396F800B367030157
:1018C400639C07069307F07F6316F500B367C700B0
:1018D40063940706930700006396080033680301C6
:1018E40093371800631E05043366C700638C070032
:1018F4006300060213051000639C06001305F0FF45
:1019040067800000631006041305F0FF6384050478
:1019140067800000E3C0A8FEE36867FE6318E30085
:10192400E3E4CEFF13050000E374DEFF13051000AB
:10193400E39005FE6FF09FFC130520006780000014
:10194400E39A07FAE392B6FCE35615FD1305F0FF9C
:10195400E39006FC1305100067800000130101FDED
:10196400232A510193DA450123248102232291027F
:1019740023202103232E3101232861019394C500E0
:1019840023261102232C41012326710193FAFA7FA5
:1019940013040500130B06001389060093D4C40036
:1019A40093D9F501638E0A309307F07F6380FA3888
:1019B400939434009357D501B3E79700B70480009C
:1019C400B3E49700131A3500938A1AC0930B0000EE
:1019D400135749011314C9001377F77F1354C40034
:1019E4001359F901630007389307F07F6304F73E46
:1019F400131434009357DB01B3E7870037048000E6
:101A040033E48700930617C093173B0013070000C5
:101A1400B38ADA0093962B00B3E6E6001306A0001F
:101A240093881A006346D64C1306200033C8290154
:101A3400634ED63C9386F6FF13061000637AD63EB7
:101A4400370901001307F9FF93520A01B3FFE700B6
:101A5400337AEA0013DF070113050A0093850F00A8
:101A6400EF00D0679307050093050F0013050A00E4
:101A7400EF00D066930E050093850F0013850200D6
:101A8400EF00D0659303050093050F001385020052
:101A9400EF00D06413D30701B38E7E003303D30168
:101AA400130E050063747300330E2501935903016B
:101AB4003373E300B3F7E700131303013377E40050
:101AC4003303F3001359040113050A0093050700B7
:101AD400EF00D060930305009305090013050A0085
:101AE400EF00D05F930E05009305070013850200F5
:101AF400EF00D05E1304050093050900138502006E
:101B0400EF00D05D13D60301B38E8E003306D601E9
:101B14009307050063768600B7060100B307D50076
:101B2400370A0100930EFAFF93520601B382F200C2
:101B3400B377D601B3F3D30193970701B387770043
:101B4400B3FED4013384F90013850E0093D9040144
:101B540093850F00EF0090589304050093050F0040
:101B640013850E00EF0090579303050093850F0033
:101B740013850900EF009056930F050093050F009D
:101B840013850900EF00905513D60401B383F301C4
:101B940033067600930605006374F601B306450127
:101BA400370A01009303FAFF935F06013376760048
:101BB40013160601B3F47400B38FDF00330F9600DD
:101BC40013850E0093050700EF00505193040500A0
:101BD4009305090013850E00EF005050130B050008
:101BE4009305070013850900EF00504F1307050004
:101BF4009305090013850900EF00504E93D50401A5
:101C0400330BEB00B3856501930E050063F4E50027
:101C1400B30E450133F7750013170701B3F47400CD
:101C2400B3068E0033079700B3025700B3B7F6002C
:101C3400B387F20033B6E200B3B2570093D505017F
:101C4400336656003306B600B385E601B38FF70159
:101C5400B3B6D500B386DF0033B7FF00B3BFF601D8
:101C6400939795003367F7013307C700B3E767001D
:101C74003307D701B337F00093D5750113179700D5
:101C840013D47601B3E7B70093969600B3E7D70071
:101C9400931677003364870063D0060213D71700C6
:101CA40093F717003367F7009317F401B367F7004E
:101CB40013541400938A080093880A006F00C01814
:101CC40033EAA40063000A08638004041385040053
:101CD400EF00504E130755FF9307D001930685FF7D
:101CE400B387E740B394D400B357F400B3E7970045
:101CF400B314D400930AD0C0138A0400B38AAA4050
:101D0400938407006FF09FCCEF00D04A930705003F
:101D1400138757019306C00113050502E3DEE6FAB3
:101D2400938787FFB317F4006FF0DFFC33EAA40056
:101D340063120A0293040000930AF07F930B2000BD
:101D44006FF01FC993040000930A0000930B100066
:101D54006FF01FC8130A0500930AF07F930B30003D
:101D64006FF01FC7B367640163820708630004044C
:101D740013050400EF001044930655FF1307D00128
:101D8400930785FF3307D7403314F4003357EB0030
:101D9400336787003314FB009306D0C09307040015
:101DA400B386A640130407006FF05FC613050B004B
:101DB400EF00504093070500938657011307C001B5
:101DC40013050502E35CD7FA938787FF3317FB00FB
:101DD4006FF09FFCB3676401639207021304000071
:101DE4009306F07F130720006FF09FC213040000D6
:101DF40093060000130710006FF09FC193070B00B8
:101E04009306F07F130730006FF09FC01306100095
:101E14003316D600937606536396060E93750624FE
:101E2400639A051A13768608E30C06C013080900A2
:101E3400930620006308D718930630006304D71A6A
:101E4400930610006306D71A1386F83F6354C00C38
:101E540013F777006300070213F7F70093064000B7
:101E6400630AD70013874700B336F7003304D4005E
:101E74009307070013177400635A0700370700FF1E
:101E84001307F7FF3374E400138608401307E07F59
:101E9400634AC71293D737009316D401B3E6F6000A
:101EA400135734001317C7008320C102032481028F
:101EB400131646011357C7003366E6001318F801DA
:101EC400B367060183244102032901028329C10166
:101ED400032A8101832A4101032B0101832BC100C1
:101EE4001385060093850700130101036780000032
:101EF4001306F0006388C60E1306B00013880900A9
:101F0400E386C6F21384040093070A0013870B00C8
:101F14006FF01FF2130710003307C74093068003C6
:101F240063C8E60C9306F00163C4E6069388E841AF
:101F340033D6E700B3161401B3981701B3E6C6000D
:101F4400B3381001B3E716013357E40093F6770072
:101F54006380060293F6F70013064000638AC60006
:101F64009386470033B6F6003307C700938706000D
:101F74009316870063C406089316D70193D73700D6
:101F8400B3E6F60013573700130600006FF09FF115
:101F9400930610FEB386C64093050002B356D400E0
:101FA400130600006306B7001386E8433316C40023
:101FB4003366F6003336C000B3E7C60013070000EB
:101FC4006FF0DFF813070000930600001306F07F9C
:101FD4006FF05FED370708001306F07F1308000069
:101FE4006FF05FEC37070800930600006FF0DFFE28
:101FF40013070000930600006FF01FF91307000099
:1020040093060000130610006FF0DFE93708100094
:102014001308F8FF130101FEB378B80013D7450184
:102024009357D5013378D800232821011379F77FFA
:102034001397380093D84601232A9100B3E7E700A9
:1020440093D4F5011357D60113183800232E110029
:10205400232C81002326310193F8F87F9305F07F28
:102064001315350093D6F6013367070113163600AE
:102074006396B800B365C7006394050093C6160061
:1020840033081941639A962A635C0011639008042B
:10209400B366C700638006669305F8FF6390050284
:1020A4003306C500B336A6003387E70013050600E0
:1020B400B307D700130910006F00C0069306F07F22
:1020C4006310D8021309F07F6F00801F9306F07F1E
:1020D4006308D91EB70680003367D700930508004C
:1020E4009306800363C8B60A9306F00163CAB60672
:1020F400130800023308B840B3160701B358B600FA
:1021040033180601B3E6160133380001B3E60601BD
:10211400B355B7003385A600B385F500B336D500B3
:10212400B387D50013978700635C07181309190058
:102134001307F07F630AE95A370780FF1307F7FF95
:1021440033F7E7009357150013751500B3E7A7009D
:102154001315F7013365F500935717006F00401608
:10216400938605FE93080002B356D70013080000B7
:1021740063881501130800043308B84033180701B5
:102184003368C80033380001B3E606019305000044
:102194006FF05FF8B366C700B336D0006FF01FFF6F
:1021A400630A080CB386284163140902B3E5A70047
:1021B400638E05509385F6FFE38405EE1308F07FE4
:1021C4006392060393070700130506006FF09FEF61
:1021D4009305F07FE388B8FEB7058000B3E7B70046
:1021E400938506009306800363C0B6089306F00146
:1021F40063C2B604130800023308B840B39607015B
:102204003353B50033180501B3E6660033380001D3
:10221400B3E60601B3D5B7003386C600B385E5003F
:10222400B336D60013050600B387D500138908001A
:102234006FF05FEF938605FE13030002B3D6D70059
:102244001308000063886500130800043308B840CD
:10225400339807013368A80033380001B3E6060158
:10226400930500006FF05FFBB3E6A700B336D00020
:102274006FF01FFF9306190093F5E67F6396050838
:10228400B3E6A7006312090663880644B366C70071
:10229400638806023306C500B336A6003387E70019
:1022A400B307D7001397870013050600635A070086
:1022B400370780FF1307F7FFB3F7E7001309100090
:1022C40013777500630807441377F50093064000FD
:1022D4006302D74413074500B336A700B387D7007A
:1022E400130507006F000043E38E06EC3366C70056
:1022F400E30A06DC93040000B7074000130500005E
:102304001309F07F6F0000419305F07F638CB63CA6
:102314003306C5003335A6003387E7003307A7002B
:102324001315F701135616003365C50093571700AC
:10233400138906006FF0DFF8635C000F639E0808E2
:10234400B366C7006388063A9306F8FF63900602F3
:102354003306C540B336C5003387E740130506008E
:10236400B307D740130910006F0040059305F07FB1
:10237400E30AB8D49305800363C6D50A9305F00134
:1023840063C8D506130800023308D840B358D600F2
:10239400B315070133180601B3E5150133380001FD
:1023A40033E60501B356D7003306C5403337C500BD
:1023B400B386D74013050600B387E640139787001A
:1023C400E35007F0370480001304F4FF33F487006C
:1023D400930905006F0000219306F07FE302D9EE14
:1023E400B70680003367D700930608006FF09FF8A4
:1023F400938506FE93080002B355B7001308000046
:1024040063881601130800043308D8403318070101
:102414003368C8003338000133E605019306000031
:102424006FF09FF83366C7003336C0006FF01FFFAC
:102434006308080E3388284163120904B3E5A70032
:10244400638E052A9305F8FF639E05003305A640B5
:102454003307F7403336A600B307C740938406001A
:102464006FF05FF01303F07F6314680293070700B3
:10247400130506001309F07F6F00000D9305F07F2C
:10248400E386B8FEB7058000B3E7B70093050800FC
:10249400130880036340B8081308F0016342B804CA
:1024A400130300023303B340335EB500339867006F
:1024B400331365003368C801333360003365680043
:1024C400B3D5B7003305A640B305B7403336A600ED
:1024D400B387C54013890800938406006FF01FEE8C
:1024E400138805FE130E000233D8070113030000FE
:1024F4006388C501130300043303B34033936700B7
:102504003363A30033336000336568009305000030
:102514006FF05FFB33E5A7003335A0006FF01FFFBA
:102524009305190093F5E57F63960508B365C70025
:1025340033E8A70063100906631C0800638E0510C6
:102544009307070013050600938406006FF05FD716
:10255400E38805D63308C540B3380501B385E740A1
:10256400B38515419398850063DC08003305A640C4
:102574003307F7403336A600B307C7406FF0DFFCDC
:102584003365B80063040518938705001305080034
:102594006FF01FD3631C0800E38E05D49307070074
:1025A40013050600938406006FF0DFB1E38C05B0D9
:1025B4006FF05FD4B305C5403338B5003384E740CA
:1025C40033040441131884009389050063500808F8
:1025D400B309A6403304F740333636013304C4400C
:1025E40093840600630E040613050400EF00803C88
:1025F400930685FF93070002B387D7403314D400B2
:10260400B3D7F900B3E787003394D90063C4260B2A
:10261400B3862641138616001307F0016342C706EA
:10262400130700023307C7403395E700B356C400CD
:102634003317E4003365D5003337E0003365E50034
:10264400B3D7C700130900006FF09FC7B3E5850037
:10265400E39A05F813090000930400006F00C00812
:1026640013850900EF000035930685019307F001F7
:10267400E3D2D7F8930785FFB397F9006FF01FF9FA
:10268400938616FE33D5D700930600021307000085
:102694006308D600130700043307C7403397E700E5
:1026A4003367E4003337E0003365E5009307000047
:1026B4006FF05FF9370780FF1307F7FF3309D9403D
:1026C400B3F7E700130504006FF09FBF93070700FB
:1026D400130506006FF0DFC5930707001305060016
:1026E4006FF01FBE1309F07F93070000130500006D
:1026F4006F004002130908006FF09FBC93070700A6
:1027040013050600130908006FF01FE49307000087
:102714009304000013978700635E070013091900F0
:102724001307F07F6302E908370780FF1307F7FFF9
:10273400B3F7E7009396D701135535001307F07FDD
:10274400B3E6A60093D73700631EE900B3E6F600AC
:102754009307000063880600B7070800930600008B
:1027640093040000131749013706F07F9397C700BD
:102774003377C7008320C1010324810193D7C700A5
:10278400B367F7001397F40133E6E70083244101AC
:10279400032901018329C10013850600930506005E
:1027A4001301010267800000930700001305000075
:1027B4006FF05FF813D74501B70610009387F6FF53
:1027C4001377F77F1306E03FB3F7B70093D5F5010E
:1027D400635EE6041306D041635AE60037050080C1
:1027E4001305F5FF3385A50067800000B3E7D70024
:1027F40093063043B386E6401306F0016340D602E5
:102804001307D7BEB397E7003355D50033E5A700C8
:10281400638005023305A0406780000093063041C1
:102824003387E64033D5E7006FF09FFE13050000C1
:1028340067800000130101FF232611002324810077
:1028440023229100630605089357F54133C4A7007A
:102854003304F4409354F50113050400EF0080158C
:102864001307E0419307A0003307A74063C8A704F8
:102874009307B000B387A74013055501B357F4007D
:102884003314A400138504009397C70093D7C7009B
:10289400131747011315F5013367F7008320C100AF
:1028A400B367A700130504000324810083244100B7
:1028B400938507001301010167800000130555FF8C
:1028C400B317A40013850400130400006FF0DFFBAA
:1028D40013070000930700006FF01FFF13060500A5
:1028E4001305000093F61500638406003305C50044
:1028F40093D5150013161600E39605FE67800000B5
:102904006340050663C605061386050093050500A6
:102914001305F0FF630C060293061000637AB600F9
:102924006358C0001316160093961600E36AB6FEA9
:102934001305000063E6C500B385C5403365D500C3
:1029440093D6160013561600E39606FE6780000021
:1029540093820000EFF05FFB13850500678002009F
:102964003305A0406348B000B305B0406FF0DFF911
:10297400B305B04093820000EFF01FF93305A04087
:10298400678002009382000063CA0500634C05005F
:10299400EFF09FF71385050067800200B305B04090
:1029A400E35805FE3305A040EFF01FF63305B040B1
:1029B40067800200B7070100637AF50293370510B8
:1029C40093B7170093973700375701009306000217
:1029D400B386F6403355F50093070787B387A700FE
:1029E40003C507003385A640678000003707000150
:1029F40093078001E37AE5FC930700016FF0DFFCA5
:102A040093060600138605009305050013052000B0
:102A14006F00D017130500006780000037560100CF
:102A2400B74501003755010013060677938505174E
:102A3400130505786F00803483254500130101FFD9
:102A44002324810023261100938701DA130405004F
:102A54006384F500EF10807183258400938781E0FF
:102A64006386F50013050400EF1040708325C4004D
:102A7400938701E7638CF5001305040003248100A8
:102A84008320C100130101016F10406E8320C10037
:102A94000324810013010101678000001305000075
:102AA40067800000130101FEB7370100232C810069
:102AB400938707A2138401DA232E1100232A91009D
:102AC40023282101232631012324410123A2F1D605
:102AD4001306800093074000930500001385C1DFAF
:102AE4002326F400232004002322040023240400CA
:102AF4002322040623280400232A0400232C040090
:102B0400EF00007BB7070100373A0100B739010035
:102B140037390100B7340100130A4AE3938989E97C
:102B2400130909F2938484F99387970013068000AC
:102B340093050000138541E6232044032322340334
:102B44002324240323269402232AF406232E840018
:102B54002324040623260406232804062326040C1F
:102B6400232C0406232E040623200408EF004074BB
:102B7400B707020093872701138781E013068000BB
:102B8400930500001385C1EC23244409232634094A
:102B940023282409232A9408232EF40C2322E4084E
:102BA4002328040C232A040C232C040C232A0412A7
:102BB4002320040E2322040E2324040EEF00406F6E
:102BC400938701E72328440F232A340F232C240F4F
:102BD400232E940E8320C1012326F40E03248101A5
:102BE40083244101032901018329C100032A8100AF
:102BF400130101026780000083A741D6130101FE7F
:102C040023263101232E1100232C8100232A910035
:102C140023282101930905006388070E3759010011
:102C2400130909779304F0FF8327490003248900DB
:102C34009387F7FF63D807006F0000081304840626
:102C4400638C97060317C4009387F7FFE31807FE06
:102C5400B707FFFF938717002326F40023220406F7
:102C64002320040023240400232204002328040036
:102C7400232A0400232C040013068000930500007B
:102C84001305C405EF00C06223280402232A0402AA
:102C940023220404232404048320C1011305040013
:102CA4000324810183244101032901018329C100F3
:102CB4001301010267800000032409006306040075
:102CC400130904006FF05FF69305C01A1385090019
:102CD400EF00904D13040500630C05021305C500B5
:102CE40093074000232004002322F4002324A4009B
:102CF4001306001A93050000EF00805B232089006F
:102D0400130904006FF05FF2EFF0DFD96FF01FF1E9
:102D1400232009009307C00023A0F9006FF0DFF718
:102D240083274503638407006780000003A741D617
:102D3400B73701009387C7A3232AF502E31607FEDA
:102D44006FF05FD66780000067800000375601008F
:102D5400B735010013060677938585A11305000096
:102D64006F00C00137560100B7350100130606771E
:102D7400938505AA130500006F004000130101FDAF
:102D840023202103232E3101232C4101232A510125
:102D940023286101232671012326110223248102A1
:102DA40023229102130B0500938B0500930A06005E
:102DB400130A0000930910001309F0FF83A44A00CA
:102DC40003A48A009384F4FF63C804028357C400F5
:102DD40063FEF9008317E4009305040013050B0058
:102DE40063862701E7800B00336AAA009384F4FF0B
:102DF40013048406E39C24FD83AA0A00E3900AFCDE
:102E04008320C10203248102832441020329010295
:102E14008329C101832A4101032B0101832BC100B2
:102E240013050A00032A81011301010367800000CE
:102E3400130101FF23248100138405008395E50019
:102E440023261100EF0000306340050283270405A8
:102E54008320C100B387A7002328F404032481003E
:102E640013010101678000008357C40037F7FFFF97
:102E74001307F7FFB3F7E7008320C1002316F4001C
:102E84000324810013010101678000001305000081
:102E9400678000008397C500130101FE232C810085
:102EA400232A91002328210123263101232E1100F6
:102EB40013F7071013840500930405001309060093
:102EC400938906006310070437F7FFFF1307F7FF22
:102ED400B3F7E7008315E4002316F400032481010B
:102EE4008320C10193860900130609008329C100C8
:102EF4000329010113850400832441011301010204
:102F04006F00C02A8395E500930620001306000095
:102F1400EF00C01C8317C4006FF01FFB130101FFF7
:102F240023248100138405008395E50023261100E2
:102F3400EF00C01A9307F0FF6308F5028357C4003B
:102F4400371700008320C100B3E7E7009397070118
:102F540093D707412328A4042316F40003248100F3
:102F640013010101678000008357C40037F7FFFF96
:102F74001307F7FFB3F7E7009397070193D70741C8
:102F84008320C1002316F4000324810013010101EE
:102F9400678000008395E5006F004000130101FF86
:102FA40023248100232291001304050013850500C6
:102FB4002326110023A401D6EF10006B9307F0FF22
:102FC400630CF5008320C1000324810083244100A5
:102FD400130101016780000083A781D6E38407FE03
:102FE4008320C1002320F4000324810083244100B2
:102FF400130101016780000083A7C1D3638EA70C6E
:1030040083254504130101FE232A9100232E110078
:10301400232C8100930405006388050423282101DF
:10302400232631011309000093090008B387250101
:1030340003A40700630E04009305040003240400A2
:1030440013850400EF000066E31804FE83A544041E
:1030540013094900E31C39FD13850400EF00806463
:10306400032901018329C10083A584036386050024
:1030740013850400EF00006303A40404630C04003C
:10308400930504000324040013850400EF00806109
:10309400E31804FE83A5C4046386050013850400B5
:1030A400EF00406083A74403638E0700032481017B
:1030B4008320C1011385040083244101130101020B
:1030C400678007008320C101032481018324410117
:1030D400130101026780000067800000130101FFF3
:1030E4001387050023248100232291009305060001
:1030F4001304050013860600130507002326110098
:1031040023A401D6EF10805D9307F0FF630CF50054
:103114008320C100032481008324410013010101A1
:103124006780000083A781D6E38407FE8320C10063
:103134002320F400032481008324410013010101AE
:1031440067800000130101FF138705002324810019
:10315400232291009305060013040500138606003C
:10316400130507002326110023A401D6EF10405BAA
:103174009307F0FF630CF5008320C1000324810052
:1031840083244100130101016780000083A781D6D5
:10319400E38407FE8320C1002320F400032481007C
:1031A400832441001301010167800000130101FF22
:1031B4001387050023248100232291009305060030
:1031C40013040500138606001305070023261100C7
:1031D40023A401D6EF1080609307F0FF630CF50081
:1031E4008320C100032481008324410013010101D1
:1031F4006780000083A781D6E38407FE8320C10093
:103204002320F400032481008324410013010101DD
:1032140067800000130101FF23248100B7570100D8
:103224003754010023202101938787751307847580
:1032340023261100232291003389E7406382E702A9
:103244001359294013048475930400008327040050
:103254009384140013044400E7800700E3E824FF88
:1032640037540100B7570100938787761307847595
:103274003389E740135929406380E70213048475B6
:10328400930400008327040093841400130444006F
:10329400E7800700E3E824FF8320C10003248100C2
:1032A4008324410003290100130101016780000008
:1032B4001303F00013070500637EC3029377F7003E
:1032C4006390070A63920508937606FF1376F60067
:1032D400B386E6002320B7002322B7002324B700D7
:1032E4002326B70013070701E366D7FE631406001D
:1032F40067800000B306C34093962600970200003F
:10330400B38656006780C6002307B700A306B7003C
:103314002306B700A305B7002305B700A304B7002D
:103324002304B700A303B7002303B700A302B70025
:103334002302B700A301B7002301B700A300B7001D
:103344002300B7006780000093F5F50F939685007E
:10335400B3E5D50093960501B3E5D5006FF0DFF62C
:103364009396270097020000B386560093820000CC
:10337400E78006FA93800200938707FF3307F7403C
:103384003306F600E378C3F66FF0DFF383A7C1D604
:10339400638C070403A747001308F0016340E8089F
:1033A4001318270063060502338307012324C30887
:1033B40083A88718130610003316E600B3E8C80084
:1033C40023A417192324D310930620006306D502DF
:1033D4001307170023A2E700B387070123A4B7004C
:1033E4001305000067800000138881ED23A601D730
:1033F400938781ED6FF01FFA83A6C7181307170090
:1034040023A2E700B3E6C60023A6D718B3870701B3
:1034140023A4B70013050000678000001305F0FF24
:1034240067800000130101FD232C410123202103A7
:1034340003A9C1D6232611026308090A232E3101E8
:10344400232A5101232861012326710123248102A7
:103454002322910223248101130B0500938B050081
:103464009309F0FF930A1000832449001384F4FFA6
:10347400634E040493942400B304990063900B08EE
:103484008327490083A644009387F7FF638C870A48
:1034940023A20400638606028327891833978A00CF
:1034A400032C4900B377F70063960706E78006000C
:1034B4000327490083A7C1D663108709639E2707A2
:1034C4001304F4FF9384C4FFE31A34FB032481023E
:1034D400832441028329C101832A4101032B010171
:1034E400832BC100032C81008320C1020329010224
:1034F400032A8101130101036780000083A744109C
:10350400E38077F91304F4FF9384C4FFE31834FFD2
:103514006FF0DFFB8327C91883A544083377F700CE
:103524006316070213050B00E78006000327490012
:1035340083A7C1D6E30487F9E38A07F81389070050
:103544006FF09FF2232289006FF0DFF413850500EA
:10355400E78006006FF0DFF5930505009306000091
:1035640013060000130500006FF05FE2130101FE73
:1035740023263101B7690100232C8100232A9100FD
:103584002328210123244101232E1100138A05003D
:10359400130905009389098AEF00D03C03A7890029
:1035A400B71700009387F7FE8324470037170000FE
:1035B40093F4C4FF3384F400330444411354C4002B
:1035C4001304F4FF1314C400634EE40093050000D5
:1035D40013050900EF00D07D83A78900B387970006
:1035E4006308F50213050900EF0010388320C101B8
:1035F4000324810183244101032901018329C1009A
:10360400032A8100130500001301010267800000F2
:10361400B305804013050900EF0090799307F0FF8C
:103624006308F5049387810603A7070083A689002E
:10363400B384844093E414003307874013050900DE
:1036440023A2960023A0E700EF0010328320C101DB
:103654000324810183244101032901018329C10039
:10366400032A810013051000130101026780000082
:103674009305000013050900EF00907303A7890068
:103684009306F000B307E540E3DEF6F483A601D425
:1036940093E717002322F7003305D54023A4A1069E
:1036A4006FF05FF463820518130101FF2324810086
:1036B400232291001384050093040500232611009E
:1036C400EF00502A0325C4FF130784FFB7650100E8
:1036D4009377E5FF3306F7009385058A8326460032
:1036E40003A8850093F6C6FF6302C81A2322D600F6
:1036F400137515003308D6006310050A032384FFED
:103704000328480037650100330767408328870092
:103714001305858AB3876700137818006382A81499
:103724000323C70023A66800232413016306081A91
:1037340093E617002322D7002320F6009306F01FF8
:1037440063ECF60693F687FF9386860003A545008F
:10375400B386D50003A6060013D8570093071000BC
:10376400B3970701B3E7A700138586FF2326A700B5
:103774002324C70023A2F50023A0E6002326E600A5
:10378400032481008320C1001385040083244100A5
:10379400130101016F00501D032548001375150026
:1037A4006306050893E61700232ED4FE2320F600B3
:1037B4009306F01FE3F8F6F893D69700130640003B
:1037C4006360D61293D66700138596031386860327
:1037D400131535003385A50083260500130585FFE1
:1037E4006318D5006F00401583A686006308D500D2
:1037F40003A646001376C6FFE3E8C7FE03A5C6008A
:103804002326A7002324D700032481002324E500D2
:103814008320C100138504008324410023A6E6000D
:10382400130101016F005014678000003765010027
:10383400B387D7001305858A83268600638CA60C7C
:103844000328C60013E517003306F70023A6060174
:103854002324D8002322A7002320F6006FF01FEEB4
:10386400631C0812832586000326C600B386F6006F
:1038740093E7160023A6C5002324B6002322F700ED
:103884003307D7002320D7006FF09FEF137515007F
:10389400B386D70063100502032584FF3307A740CE
:1038A4008327C70003268700B386A6002326F600D5
:1038B40023A4C70013E6160083A741D42322C7001C
:1038C40023A4E500E3EEF6EA83A581D7138504007B
:1038D400EFF0DFC96FF0DFEAB387D7006FF0DFF5F1
:1038E400130640016370D602130640056364D606CE
:1038F40093D6C7001385F6061386E606131535001E
:103904006FF05FED1385C6051386B60513153500F4
:103914006FF05FEC23AAE50023A8E50093E6170007
:103924002326A7002324A7002322D7003307F70068
:103934002320F7006FF0DFE403A845001356264068
:1039440093071000B397C700B3E7070123A2F5005C
:103954006FF01FEB13064015636CD60093D6F70087
:103964001385860713867607131535006FF09FE6D7
:1039740013064055636CD60093D627011385D607EA
:103984001386C607131535006FF0DFE41305803F77
:103994001306E0076FF01FE493E617002322D70015
:1039A4002320F6006FF0DFDD130101FD232E31012A
:1039B400232611022324810223229102232021039E
:1039C4009387B50013076001930905006362F70844
:1039D4009307000163E6B720EF00C07893078001E6
:1039E4009305200093040001376901001309098A33
:1039F400B307F90003A44700138787FF6304E43483
:103A0400832744008326C4000326840093F7C7FF5A
:103A1400B307F40003A747002326D60023A4C60057
:103A2400136717001385090023A2E700EF00C07392
:103A3400130584008320C1020324810283244102EC
:103A4400032901028329C1011301010367800000D6
:103A540093F487FF63C6071863E4B418EF0080701B
:103A64009307701F63FA973E93D7940063820718F5
:103A7400130740006360F73493D76400938597037A
:103A84001388870313963500376901001309098ADF
:103A94003306C90003244600130686FF6308860222
:103AA4001305F0006F0040018326C4006358072803
:103AB400630ED600138406008327440093F7C7FFE0
:103AC40033879740E352E5FE930508000324090178
:103AD400376801001308888A630E0425832744008D
:103AE4009306F00093F7C7FF3387974063CCE6361D
:103AF400232A090123280901635007341307F01FFF
:103B0400032549006368F72413F787FF1307870029
:103B14003307E9008326070013D6570093071000E4
:103B2400B397C7003365F500930787FF2326F40096
:103B34002324D4002322A9002320870023A686005F
:103B440093D72540130610003316F600636AC50A9E
:103B5400B377A600639407021316160093F5C5FF06
:103B6400B377A60093854500639A070013161600E1
:103B7400B377A60093854500E38A07FE9308F00017
:103B84001393350033036900130503008327C5002D
:103B9400138E05006302F52403A74700138407006E
:103BA40083A7C7001377C7FFB306974063C2D8241F
:103BB400E3C206FE3307E40083264700032684009D
:103BC4001385090093E616002322D7002326F60066
:103BD40023A4C700EF004059130584006FF09FE54C
:103BE4009307C00023A0F900130500006FF09FE4C1
:103BF40013060020930500041308F0036FF0DFE8B8
:103C040003248900232861018327440013FBC7FF91
:103C140063689B0033079B409307F00063CAE70C7B
:103C240023229101232A510103A701D483AA81D716
:103C3400232C4101232671019307F0FF330A640109
:103C4400B38A54016306F73CB71700009387F70063
:103C5400B38AFA00B7F7FFFFB3FAFA0093850A00B4
:103C640013850900EF00D0149307F0FF930B0500B0
:103C7400630AF54423248101636E4523138C810672
:103C840083250C00B385BA002320BC0013870500EC
:103C94006316AA2A931745016392072A832B890086
:103CA400B3075B0193E7170023A2FB0083A641D768
:103CB40063F4B60023AAB1D683A601D763F4B60091
:103CC40023A8B1D6032C810013840B0093F7C7FFFC
:103CD4003387974063EA97389307F00063D6E73851
:103CE400032A8101832A4101832BC100832C4100D3
:103CF40093E714002322F400B304940023249900CE
:103D0400136717001385090023A2E400EF00C045E0
:103D14008320C1021305840003248102032B0101C3
:103D240083244102032901028329C10113010103F0
:103D340067800000032549006FF09FE0032684009C
:103D44006FF01FCD03A4C70093852500E38087D8B7
:103D54006FF01FCB13D797009306400063F2E6146D
:103D64009306400163E4E6321306C7059306B705DC
:103D7400131636003306C90003270600130686FF10
:103D84006318E6006F004029032787006308E600F4
:103D94008326470093F6C6FFE3E8D7FE0326C70051
:103DA4002326C4002324E40023248600232687003A
:103DB4006FF01FD9130740016378F710130740050C
:103DC4006364F72E93D7C4009385F7061388E70638
:103DD400139635006FF05FCB130E1E0093773E00F1
:103DE40013058500638007108327C5006FF09FDAF1
:103DF4000326840093E514002322B4002326F6004E
:103E040023A4C700B3049400232A9900232899000B
:103E140093E7160023A6040123A4040123A2F400BB
:103E24003307E400138509002320D700EF00C033D3
:103E3400130584006FF01FC0B307F40003A7470005
:103E4400138509001367170023A2E700EF00C031B0
:103E5400130584006FF01FBE93D53400938784004C
:103E64006FF09FB893E614002322D400B3049400A7
:103E7400232A9900232899009366170023A6040196
:103E840023A4040123A2D400B307F400138509007A
:103E940023A0E700EF00402D130584006FF09FB9C5
:103EA40013D7670013069703930687031316360088
:103EB4006FF05FEC630C240703248900032C81005A
:103EC400832744006FF09FE09385C7051388B705E7
:103ED400139635006FF05FBB832783009385F5FF4E
:103EE400639E672693F73500130383FFE39607FE6B
:103EF400032749009347F6FFB3F7E7002322F900AD
:103F040013161600E3EEC7CEE30C06CE3377F600A5
:103F1400631A0700131616003377F600130E4E00CB
:103F2400E30A07FE93050E006FF09FC5138C81060C
:103F340003270C003387EA002320EC0083A601D476
:103F44009307F0FF6386F618B3874B41B387E70006
:103F54002320FC0093FC7B00638C0C0CB38B9B41F3
:103F6400B717000093878700938B8B00B385974125
:103F7400B38A5B01B38555419395450113DA450135
:103F840093050A0013850900EF0080629307F0FF90
:103F94006300F51833057541B30A450103270C0086
:103FA4002324790193E71A00B305EA002320BC0017
:103FB40023A2FB00E30C24CF9306F00063F0660B0E
:103FC4000327440093074BFF93F787FF13771700EA
:103FD4003367F7002322E400130650003307F4008C
:103FE4002322C7002324C70063E6F60083A74B00FF
:103FF4006FF0DFCB9305840013850900EFF08FEA9F
:10400400832B890083250C0083A74B006FF01FCA04
:10401400938A0A016FF09FC493D626409307100039
:10402400B397D7003365F5002322A9006FF05FD75B
:10403400B3855B01B305B0409395450113DA45019F
:1040440093050A0013850900EF0080569307F0FFDB
:10405400E312F5F4130A00006FF05FF4032C8100FF
:104064009307100023A2FB0013850900EF00C00F83
:1040740013050000032A8101832A4101032B010156
:10408400832BC100832C41006FF0DF9A9306400517
:1040940063E4E60413D7C7001306F7069306E7069E
:1040A400131636006FF01FCD130740156364F70431
:1040B40093D7F40093858707138877071396350001
:1040C4006FF09F9C03248900832744006FF01FC076
:1040D40023A071D56FF01FE89306401563E4E6044E
:1040E40013D7F700130687079306770713163600CE
:1040F4006FF05FC8130740556364F70493D7240136
:104104009385D7071388C707139635006FF0DF9799
:10411400938C8CFFB38A9A01B38A7A41130A000004
:104124006FF0DFE79306405563E4E60213D72701F7
:104134001306D7079306C707131636006FF09FC3FD
:104144001306803F9305F0071308E0076FF0DF9331
:104154001306803F9306E0076FF0DFC18327490011
:104164006FF01FDA6780000067800000130101FF11
:1041740023261100232021016388050223248100C2
:1041840023229100138405009304050063060500AF
:1041940083274503638C070C8317C40063920702CB
:1041A40003248100832441008320C10013090000FB
:1041B40013050900032901001301010167800000B0
:1041C4009305040013850400EF00800B8327C402C9
:1041D40013090500638A07008325C40113850400BD
:1041E400E7800700634405068357C40093F7070874
:1041F4006396070683250403638C05009307040470
:104204006386F50013850400EFF0CFC92328040268
:10421400832544046388050013850400EFF08FC8E8
:1042240023220404EFE01FB223160400EFE0DFB101
:104234008320C10003248100832441001305090065
:104244000329010013010101678000008357C400A2
:104254001309F0FF93F70708E38E07F88325040199
:1042640013850400EFF00FC46FF0DFF8EFE05FABED
:104274006FF09FF29305050003A5C1D36FF01FEF04
:104284000397C500130101FE232C8100232631016D
:10429400232E1100937787001384050093090500EA
:1042A40063900712B71700009387078083A6450021
:1042B400B367F7002396F5006352D01803288402ED
:1042C4006304080E232A91009316370183A409007E
:1042D40023A009008325C40163CE0616130600003B
:1042E4009306100013850900E70008009307F0FF08
:1042F400130605006304F51A8317C4000328840217
:104304008325C40193F74700638E07000327440005
:10431400832704033306E640638607008327C40328
:104324003306F6409306000013850900E7000800F1
:104334009307F0FF6314F51283A609009307D001D5
:104344000317C40063EAD716B70740209387170002
:10435400B3D7D70093F71700638007160326040129
:10436400B7F7FFFF9387F77FB377F7002316F400BF
:10437400232204002320C4009317370163D40700C9
:10438400638206108325040323A099006384051027
:10439400930704046386F50013850900EFF08FB0DA
:1043A4008324410123280402130500008320C10152
:1043B400032481018329C1001301010267800000E5
:1043C4002328210103A9050163020908232A910076
:1043D40083A405001377370023A02501B384244167
:1043E400930700006314070083A745012324F40006
:1043F400634890006F0040053309A9006356900498
:10440400832744028325C40193860400130609000C
:1044140013850900E7800700B384A440E34EA0FCA1
:104424000317C4000329010113670704832441010E
:104434002316E4001305F0FF6FF05FF783A6C503AE
:10444400E34ED0E66FF05FF68324410103290101B6
:104454006FF09FF5032604056FF0DFEA0317C4002D
:1044640083260401B7F7FFFF9387F77FB377F7003D
:104474002316F400232204002320D40093173701C9
:10448400E3D207F0832504032328A40423A099007E
:10449400E39005F0832441016FF01FF183A7090025
:1044A400E38C07E41307D001638CE7001307600172
:1044B4006388E7000317C400136707046FF01FF74E
:1044C40023A09900832441016FF01FEE130101FE24
:1044D400232C8100232E110013040500630605001C
:1044E40083274503638A07028397C500639C0700FB
:1044F4008320C1010324810113050000130101027B
:104504006780000013050400032481018320C10196
:10451400130101026FF0DFD62326B100EFE05F80C4
:104524008325C1006FF05FFC630005069305050059
:1045340003A5C1D36306050083274503638C0700E5
:104544008397C50063960700130500006780000089
:104554006FF01FD3130101FE2326B1002324A10011
:10456400232E1100EFE0CFFB8325C100032581003A
:104574008397C500639807028320C10113050000D7
:10458400130101026780000037560100B74501009E
:1045940037550100130606779385054D13050578F5
:1045A4006FE0CFFD8320C101130101026FF05FCDE5
:1045B400130101FF23248100232291001304050029
:1045C400138505002326110023A401D6EF008019CA
:1045D4009307F0FF630CF5008320C10003248100DE
:1045E40083244100130101016780000083A781D661
:1045F400E38407FE8320C1002320F4000324810008
:10460400832441001301010167800000130101FFAD
:1046140023248100B757010037540100938787761C
:104624001304C4763304F44023229100232611009A
:1046340093542440638004021304C4FF3304F4003D
:10464400832704009384F4FF1304C4FFE780070066
:10465400E39804FE8320C1000324810083244100E5
:104664001301010167800000130101FF23261100DB
:1046740023248100930890037300000013040500B1
:10468400634C05008320C10013050400032481004A
:10469400130101016780000033048040EF004018DB
:1046A400232085001304F0FF6FF0DFFD9308D0058D
:1046B40073000000634405006F000000130101FF54
:1046C40023248100130405002326110033048040B1
:1046D400EF000015232085006F000000130101FF87
:1046E40023261100232481009308E00373000000B3
:1046F40013040500634C05008320C1001305040066
:104704000324810013010101678000003304804009
:10471400EF000011232085001304F0FF6FF0DFFD8C
:10472400130101FF23261100232481009308F003C1
:104734007300000013040500634C05008320C100CE
:1047440013050400032481001301010167800000A4
:1047540033048040EF00C00C232085001304F0FFD5
:104764006FF0DFFD03A7C1D7130101FF232611005A
:1047740093070500631007029308600D13050000FA
:10478400730000001306F0FF13070500630AC50257
:1047940023AEA1D69308600D3385E70073000000B3
:1047A40003A7C1D7B387E700631CF5008320C100CA
:1047B40023AEA1D613050700130101016780000091
:1047C400EF0000068320C1009307C0002320F500FA
:1047D4001305F0FF1301010167800000130101FFBD
:1047E4002326110023248100930800047300000091
:1047F40013040500634C05008320C1001305040065
:104804000324810013010101678000003304804008
:10481400EF000001232085001304F0FF6FF0DFFD9B
:0848240003A5C1D36780000069
:1048300064656275673A20002830780029202F20AF
:104840000000000029200A0D00000000756172744C
:1048500020746573742023000A0D0000000000001E
:104860002D0000002E000000000000000000244089
:104870000001020203030303040404040404040407
:1048800005050505050505050505050505050505D8
:1048900006060606060606060606060606060606B8
:1048A00006060606060606060606060606060606A8
:1048B0000707070707070707070707070707070788
:1048C0000707070707070707070707070707070778
:1048D0000707070707070707070707070707070768
:1048E0000707070707070707070707070707070758
:1048F0000808080808080808080808080808080838
:104900000808080808080808080808080808080827
:104910000808080808080808080808080808080817
:104920000808080808080808080808080808080807
:1049300008080808080808080808080808080808F7
:1049400008080808080808080808080808080808E7
:1049500008080808080808080808080808080808D7
:1049600008080808080808080808080808080808C7
:105000001000000000000000037A5200017C010142
:105010001B0D020024000000180000006CB1FFFF0F
:105020003800000000440E104881018802440C083A
:10503000005CC144C80C0210440E000024000000B3
:10504000400000007CB1FFFF4800000000440E104B
:105050004881018802440C08006CC144C80C02104D
:10506000440E000024000000680000009CB1FFFF17
:105070004400000000440E204881018802440C08CE
:105080000068C144C80C0220440E00002400000047
:1050900090000000B8B1FFFF5C00000000440E204B
:1050A0004881018802440C08000240C144C80C0237
:1050B00020440E0024000000B8000000ECB1FFFF07
:1050C000C400000000440E204881018802440C08FE
:1050D0000002A8C144C80C0220440E0020000000B9
:1050E000E000000088B2FFFF1C00000000440E102A
:1050F000448801440C080048C80C0210440E00000B
:10510000240000000401000080B2FFFF68000000DE
:1051100000440E104881018802440C0800024CC172
:1051200044C80C0210440E00240000002C010000B2
:10513000C0B2FFFF2400000000440E104881018827
:1051400002440C080048C144C80C0210440E000080
:105150002400000054010000BCB2FFFF6800000002
:1051600000440E204881018802440C0800024CC112
:1051700044C80C0220440E00200000007C01000006
:10518000FCB2FFFF2000000000440E2044880144D0
:105190000C08004CC80C0220440E00002000000047
:1051A000A0010000F8B2FFFF5000000000440E20F4
:1051B000448801440C08007CC80C0220440E000006
:1051C00020000000C401000024B3FFFF50000000D5
:1051D00000440E20448801440C08007CC80C0220C6
:1051E000440E000020000000E801000050B3FFFF63
:1051F0004800000000440E30448801440C0800744C
:10520000C80C0230440E0000200000000C02000018
:1052100074B3FFFF7400000000440E304488014462
:105220000C08000260C80C0230440E00240000008C
:1052300030020000C4B3FFFF5800000000440E20FD
:105240004881018802440C0800023CC144C80C0299
:1052500020440E002400000058020000F4B3FFFFB9
:10526000A400000000440E304881018802440C086C
:10527000000288C144C80C0230440E002000000027
:105280008002000070B4FFFF3800000000440E20D0
:10529000448801440C080064C80C0220440E00003D
:1052A00020000000A402000084B4FFFF20000000E2
:1052B00000440E20448801440C08004CC80C022015
:1052C000440E000020000000C802000080B4FFFF70
:1052D0004800000000440E20448801440C0800747B
:1052E000C80C0220440E000020000000EC02000068
:1052F000A4B4FFFF9000000000440E204488014445
:105300000C0800027CC80C0220440E0020000000A3
:105310001003000010B5FFFF3000000000440E2015
:10532000448801440C08005CC80C0220440E0000B4
:1053300020000000340300001CB5FFFF2000000027
:1053400000440E20448801440C08004CC80C022084
:10535000440E0000200000005803000018B5FFFFB5
:105360002C00000000440E20448801440C08005822
:10537000C80C0220440E0000200000007C03000046
:1053800020B5FFFF4400000000440E304488014473
:105390000C080070C80C0230440E0000240000000D
:1053A000A003000040B5FFFF7C00000000440E3069
:1053B0004881018802440C08000260C144C80C0204
:1053C00030440E0024000000C803000094B5FFFF25
:1053D0008000000000440E304881018802440C081F
:1053E000000264C144C80C0230440E0024000000D6
:1053F000F0030000ECB5FFFF8C00000000440E300D
:105400004881018802440C08000270C144C80C02A3
:1054100030440E00240000001804000050B6FFFFC6
:105420006000000000440E104881018802440C080E
:10543000000244C144C80C0210440E001C000000CD
:105440004004000088B6FFFF4000000000440E103A
:105450004881018802440C0800000000240000007C
:1054600060040000A8B6FFFF6C00000000440E10AE
:105470004881018802440C08000250C144C80C0253
:1054800010440E002400000088040000ECB6FFFF6A
:105490002400000000440E104881018802440C08DA
:1054A0000048C144C80C0210440E00002400000053
:1054B000B0040000E8B6FFFF4800000000440E20E2
:1054C0004881018802440C08006CC144C80C0220C9
:1054D000440E000020000000D804000008B7FFFFC1
:1054E0002000000000440E20448801440C08004CB9
:1054F000C80C0220440E000024000000FC04000040
:1055000004B7FFFF6000000000440E3048810188AE
:1055100002440C08000244C144C80C0230440E008E
:1055200020000000240500003CB7FFFF44000000FD
:1055300000440E30448801440C080070C80C02304E
:10554000440E000020000000480500005CB7FFFF8B
:105550004000000000440E30448801440C08006CF8
:10556000C80C0230440E0000240000006C0500004E
:1055700078B7FFFF6400000000440E2048810188D6
:1055800002440C08000248C144C80C0220440E002A
:105590002400000094050000B4B7FFFF7000000075
:1055A00000440E304881018802440C08000254C1B6
:1055B00044C80C0230440E0024000000BC0500006A
:1055C000FCB7FFFF3800000000440E20488101882E
:1055D00002440C08005CC144C80C0220440E0000C8
:1055E00024000000E40500000CB8FFFF40000000AC
:1055F00000440E204881018802440C080064C14424
:10560000C80C0220440E0000280000000C06000018
:1056100024B8FFFFC801000000440E6048810188E3
:1056200002440C080003AC01C144C80C0260440EE3
:10563000000000002400000038060000C0B9FFFF91
:105640004000000000440E204881018802440C08FC
:105650000064C144C80C0220440E00002400000075
:1056600060060000D8B9FFFF4400000000440E208F
:105670004881018802440C080068C144C80C02201B
:10568000440E00003000000088060000F4B9FFFF5F
:105690009C01000000440E40508101880292039357
:1056A00004440C0800037001C144C80C024044D2F9
:1056B00044D3440E0000000024000000BC0600009B
:1056C0005CBBFFFF4400000000440E2048810188BD
:1056D00002440C080068C144C80C0220440E0000BB
:1056E00024000000E406000078BBFFFF600000001B
:1056F00000440E204881018802440C08000244C185
:1057000044C80C0220440E00480000000C070000B2
:10571000B0BBFFFFC405000000440E306C9406814E
:1057200001880289039204930595079608970998C2
:105730000A990B0354020AC144C844C944D344D44F
:1057400044D544D644D744D844D94CD2440E00441E
:085750000B0000000000000046
:10575800C000010068010100F0030100780B01009E
:045768002401010017
:105770000000000003000000105D010000000000B8
:1057800000000000105D0100785D0100E05D010097
:105790000000000000000000000000000000000009
:1057A00000000000000000000000000000000000F9
:1057B00000000000000000000000000000000000E9
:1057C00000000000000000000000000000000000D9
:1057D00000000000000000000000000000000000C9
:1057E00000000000000000000000000000000000B9
:1057F00000000000000000000000000000000000A9
:105800000000000000000000000000000000000098
:105810000000000000000000010000000000000087
:105820000E33CDAB34126DE6ECDE05000B0000004C
:105830000000000000000000000000000000000068
:105840000000000000000000000000000000000058
:105850000000000000000000000000000000000048
:105860000000000000000000000000000000000038
:105870000000000000000000000000000000000028
:105880000000000000000000000000000000000018
:105890000000000000000000000000000000000008
:1058A0000000000000000000A0580100A058010006
:1058B000A8580100A8580100B0580100B0580100D4
:1058C000B8580100B8580100C0580100C058010084
:1058D000C8580100C8580100D0580100D058010034
:1058E000D8580100D8580100E0580100E0580100E4
:1058F000E8580100E8580100F0580100F058010094
:10590000F8580100F8580100005901000059010041
:1059100008590100085901001059010010590100EF
:10592000185901001859010020590100205901009F
:10593000285901002859010030590100305901004F
:1059400038590100385901004059010040590100FF
:1059500048590100485901005059010050590100AF
:10596000585901005859010060590100605901005F
:10597000685901006859010070590100705901000F
:1059800078590100785901008059010080590100BF
:10599000885901008859010090590100905901006F
:1059A0009859010098590100A0590100A05901001F
:1059B000A8590100A8590100B0590100B0590100CF
:1059C000B8590100B8590100C0590100C05901007F
:1059D000C8590100C8590100D0590100D05901002F
:1059E000D8590100D8590100E0590100E0590100DF
:1059F000E8590100E8590100F0590100F05901008F
:105A0000F8590100F8590100005A0100005A01003C
:105A1000085A0100085A0100105A0100105A0100EA
:105A2000185A0100185A0100205A0100205A01009A
:105A3000285A0100285A0100305A0100305A01004A
:105A4000385A0100385A0100405A0100405A0100FA
:105A5000485A0100485A0100505A0100505A0100AA
:105A6000585A0100585A0100605A0100605A01005A
:105A7000685A0100685A0100705A0100705A01000A
:105A8000785A0100785A0100805A0100805A0100BA
:105A9000885A0100885A0100905A0100905A01006A
:105AA000985A0100985A0100A05A0100A05A01001A
:105AB000A85A0100A85A0100B05A0100B05A0100CA
:105AC000B85A0100B85A0100C05A0100C05A01007A
:105AD000C85A0100C85A0100D05A0100D05A01002A
:105AE000D85A0100D85A0100E05A0100E05A0100DA
:105AF000E85A0100E85A0100F05A0100F05A01008A
:105B0000F85A0100F85A0100005B0100005B010037
:105B1000085B0100085B0100105B0100105B0100E5
:105B2000185B0100185B0100205B0100205B010095
:105B3000285B0100285B0100305B0100305B010045
:105B4000385B0100385B0100405B0100405B0100F5
:105B5000485B0100485B0100505B0100505B0100A5
:105B6000585B0100585B0100605B0100605B010055
:105B7000685B0100685B0100705B0100705B010005
:105B8000785B0100785B0100805B0100805B0100B5
:105B9000885B0100885B0100905B0100905B010065
:105BA000985B0100985B0100A05B0100A05B010015
:105BB000A85B0100A85B0100B05B0100B05B0100C5
:105BC000B85B0100B85B0100C05B0100C05B010075
:105BD000C85B0100C85B0100D05B0100D05B010025
:105BE000D85B0100D85B0100E05B0100E05B0100D5
:105BF000E85B0100E85B0100F05B0100F05B010085
:105C0000F85B0100F85B0100005C0100005C010032
:105C1000085C0100085C0100105C0100105C0100E0
:105C2000185C0100185C0100205C0100205C010090
:105C3000285C0100285C0100305C0100305C010040
:105C4000385C0100385C0100405C0100405C0100F0
:105C5000485C0100485C0100505C0100505C0100A0
:105C6000585C0100585C0100605C0100605C010050
:105C7000685C0100685C0100705C0100705C010000
:105C8000785C0100785C0100805C0100805C0100B0
:105C9000885C0100885C0100905C0100905C010060
:085CA000985C0100985C010012
:105CA8000000000080570100FFFFFFFF0000020016
:04000003100000D811
:00000001FF
